:0400000090EF05F088
:060008004682C8EF83F000
:100018004680D8CFA6F0E8CFA7F0E0CFA8F0F3CF7E
:10002800A9F0F4CFAAF0F6CFABF0F7CFACF0F8CF49
:10003800ADF0F5CFAEF00E01C6A525EF00F027EF25
:1000480000F0F7EF01F0CEA52CEF00F02EEF00F056
:10005800F7EF01F0D9EF01F0730EC86E600EC76EAE
:10006800E351D8A43AEF00F03CEF00F044EF00F081
:10007800000EDC6F000EDB6F000ED66F000ED56F22
:10008800310E196E010E1A6E0C0E94ECAAF00001D6
:10009800E42BF5EF01F0F90EC86EC00EC76E120E14
:1000A800196E0C0EC8ECAAF04BEF00F0F90EC86EF2
:1000B800C00EC76EE8C0DFF0E06B110E196E0C0EB3
:1000C800C8ECAAF04BEF00F0F90EC86EC00EC76E70
:1000D800E8C0DDF0DE6B140E196E0C0EC8ECAAF049
:1000E8000001DF51A36FA26BDB51A227DC51A323D0
:1000F800DD51A225DB6FDE51A321DC6F4BEF00F051
:10010800F90EC86EC00EC76EE8C0D9F0DA6B130ED0
:10011800196E0C0EC8ECAAF04BEF00F0F90EC86E81
:10012800C00EC76EE8C0D7F0D86B180E196E0C0E4B
:10013800C8ECAAF00001D951A36FA26BD551A22730
:10014800D651A323D751A225D56FD851A321D66F55
:10015800E46BE32B100EE319D8A4B5EF00F0B7EF6A
:1001680000F0F5EF01F0DBC0A2F0DCC0A3F0040E54
:10017800A46FA335A333A233A42FBDEF00F0A2C010
:10018800DBF0A3C0DCF0D351DB5DDB6FD451DC596D
:10019800DC6FD5C0A2F0D6C0A3F0040EA46FA335BF
:1001A800A333A233A42FD3EF00F0A2C0D5F0A3C08D
:1001B800D6F0D151D55DD56FD251D659D66FB3C0CF
:1001C80064F0B4C065F0B5C066F0B6C067F0D5C0DD
:1001D80019F0D6C01AF0000E1ABEFF0E1B6E1C6E68
:1001E800010E08ECA0F019C060F01AC061F01BC045
:1001F80062F01CC063F036EC96F060C075F061C028
:1002080076F062C077F063C078F058ECA4F075C05F
:10021800D5F076C0D6F0D5C019F0D6C01AF0000EC9
:100228001ABEFF0E1B6E1C6E010E08ECA0F019C062
:1002380085F01AC086F01BC087F01CC088F0DBC0B0
:1002480019F0DCC01AF0000E1ABEFF0E1B6E1C6EF1
:10025800010E08ECA0F019C089F01AC08AF01BC082
:100268008BF01CC08CF013EC9AF085C0AFF086C000
:10027800B0F087C0B1F088C0B2F0AFC09EF0B0C097
:100288009FF0B1C0A0F0B2C0A1F000EC80F09EC019
:10029800E9F09FC0EAF0A0C0EBF0A1C0ECF0E9C023
:1002A80060F0EAC061F0EBC062F0ECC063F0E10E10
:1002B8000001646F2E0E656F650E666F420E676FE4
:1002C80036EC96F060C0E9F061C0EAF062C0EBF08D
:1002D80063C0ECF00001DCBF76EF01F074EF01F0D1
:1002E80092EF01F0E9C075F0EAC076F0EBC077F064
:1002F800ECC078F0000E796F000E7A6F340E7B6FC9
:10030800430E7C6F8FEC8FF075C0E9F076C0EAF091
:1003180077C0EBF078C0ECF0B3EF01F0D6BF99EFFF
:1003280001F097EF01F0B3EF01F0E9C075F0EAC012
:1003380076F0EBC077F0ECC078F0000E796F000E25
:100348007A6FB40E7B6F430E7C6F8FEC8FF075C0A5
:10035800E9F076C0EAF077C0EBF078C0ECF0E9C0DD
:1003680019F0EAC01AF0EBC01BF0ECC01CF0000E4C
:100378001D6E000E1E6EE10E1F6E430E206ED3EC36
:10038800A7F0D8A0CAEF01F0CCEF01F0D5EF01F04B
:10039800000E0001E96F000EEA6F870EEB6F430E47
:1003A800EC6F0001E36BF5EF01F00001E451000A86
:1003B800D8B430EF00F0010AD8B44FEF00F0030AC8
:1003C800D8B45AEF00F0010AD8B468EF00F0070A71
:1003D800D8B484EF00F0010AD8B492EF00F0F5EF3A
:1003E80001F00E01CE95CEABFCEF01F0FEEF01F06F
:1003F8007CEF05F0C6AB03EF02F005EF02F07CEFEF
:1004080005F00001E505D8A40CEF02F00EEF02F0AC
:1004180012EF02F0020EE56F37EF03F0020EE51956
:10042800D8A419EF02F01BEF02F037EF03F0E75101
:10043800D8A421EF02F023EF02F040EF02F0E651DA
:10044800D8A429EF02F02BEF02F040EF02F08DBCA8
:1004580030EF02F032EF02F03DEF02F08FA437EFF9
:1004680002F039EF02F03DEF02F0010EE76FA8EF5E
:1004780002F0E76BA8EF02F0E705D8A446EF02F018
:1004880048EF02F062EF02F0E651D8A44EEF02F016
:1004980050EF02F062EF02F08DBC55EF02F057EF1B
:1004A80002F03DEF02F08FB45CEF02F05EEF02F075
:1004B8003DEF02F0020EE76FA8EF02F0020EE71917
:1004C800D8A469EF02F06BEF02F085EF02F0E65175
:1004D800D8A471EF02F073EF02F085EF02F08DAC53
:1004E80078EF02F07AEF02F03DEF02F08FB47FEF81
:1004F80002F081EF02F03DEF02F0030EE76FA8EF84
:1005080002F0030EE719D8A48CEF02F08EEF02F088
:10051800A8EF02F0E651D8A494EF02F096EF02F0AB
:10052800A8EF02F08DAC9BEF02F09DEF02F03DEFDB
:1005380002F08FA4A2EF02F0A4EF02F03DEF02F068
:10054800BF4BC02B3DEF02F0E651D8A4AEEF02F04E
:10055800B0EF02F0CDEF02F0E751D8A4B6EF02F009
:10056800B8EF02F0CDEF02F08DACBDEF02F0BFEFB7
:1005780002F0CAEF02F08FB4C4EF02F0C6EF02F047
:10058800CAEF02F0010EE66F36EF03F0E66B36EFC6
:1005980003F0E605D8A4D3EF02F0D5EF02F0EFEFB1
:1005A80002F0E751D8A4DBEF02F0DDEF02F0EFEF45
:1005B80002F08DBCE2EF02F0E4EF02F0CAEF02F0C5
:1005C8008FB4E9EF02F0EBEF02F0CAEF02F0020E8F
:1005D800E66F36EF03F0020EE619D8A4F6EF02F044
:1005E800F8EF02F012EF03F0E751D8A4FEEF02F0A3
:1005F80000EF03F012EF03F08DBC05EF03F007EFF7
:1006080003F0CAEF02F08FA40CEF03F00EEF03F033
:10061800CAEF02F0030EE66F36EF03F0030EE61999
:10062800D8A419EF03F01BEF03F036EF03F0E751FE
:10063800D8A421EF03F023EF03F036EF03F08DACDD
:1006480028EF03F02AEF03F0CAEF02F08FA42FEF90
:1006580003F031EF03F0CAEF02F0BF07D8A0C007DC
:10066800CAEF02F0E56B9DB43CEF03F03EEF03F0F8
:1006780045EF03F09DA243EF03F045EF03F049EF88
:1006880003F09D989D88995099500E019DB54FEFA4
:1006980003F051EF03F058EF03F09DA356EF03F07A
:1006A80058EF03F05CEF03F09D999D89995199519A
:1006B800010E01012C27000E2D232E232F23D80EE7
:1006C800196E530E1A6E010E1B6E000E1C6EC9C1F8
:1006D8001DF0CAC11EF0CBC11FF0CCC120F04FECF9
:1006E800A3F00001C7511926C8511A22191E1A1E53
:1006F800194A1A2A19C0CFF01AC0D0F0D80E196EAC
:10070800530E1A6E010E1B6E000E1C6EC5C11DF035
:10071800C6C11EF0C7C11FF0C8C120F04FECA3F03E
:100728000001C5511926C6511A22191E1A1E194A46
:100738001A2A19C0CDF01AC0CEF0C751C811D8A4D2
:10074800A8EF03F0AAEF03F0B0EF03F0000ECC6FB0
:10075800000ECB6FB6EF03F0CF51CB25CB6FD05146
:10076800CC21CC6FC551C611D8A4BDEF03F0BFEFA3
:1007780003F0C5EF03F0000ECA6F000EC96FCBEF90
:1007880003F0CD51C925C96FCE51CA21CA6FCB51CB
:10079800ED5DEE51800AA26FCC51800AA259D8B003
:1007A800D8EF03F0DAEF03F0E0EF03F0EDC0CBF0A1
:1007B800EEC0CCF003EF04F0EDC0A2F0EEC0A3F061
:1007C800A21FA31FA24BA32BA251CB5DCC51800A21
:1007D800A46FA351800AA459D8B0F5EF03F0F7EF3E
:1007E80003F003EF04F0EDC0A2F0EEC0A3F0A21FE7
:1007F800A31FA24BA32BA2C0CBF0A3C0CCF0C9511E
:10080800ED5DEE51800AA26FCA51800AA259D8B094
:1008180010EF04F012EF04F018EF04F0EDC0C9F087
:10082800EEC0CAF03BEF04F0EDC0A2F0EEC0A3F0BA
:10083800A21FA31FA24BA32BA251C95DCA51800AB4
:10084800A46FA351800AA459D8B02DEF04F02FEF5C
:1008580004F03BEF04F0EDC0A2F0EEC0A3F0A21F3D
:10086800A31FA24BA32BA2C0C9F0A3C0CAF0C1C149
:1008780064F0C2C165F0C3C166F0C4C167F0CFC0FF
:1008880019F0D0C01AF0000E1ABEFF0E1B6E1C6EB7
:10089800010E08ECA0F019C060F01AC061F01BC08E
:1008A80062F01CC063F036EC96F060C075F061C071
:1008B80076F062C077F063C078F058ECA4F075C0A9
:1008C800A2F076C0A3F077C0A4F078C0A5F0BDC1AF
:1008D80064F0BEC165F0BFC166F0C0C167F0CBC0AF
:1008E80019F0CCC01AF0000E1ABEFF0E1B6E1C6E5B
:1008F800010E08ECA0F019C060F01AC061F01BC02E
:1009080062F01CC063F036EC96F060C075F061C010
:1009180076F062C077F063C078F058ECA4F000017C
:100928007551A225C36F7651A321C46FC1C164F06C
:10093800C2C165F0C3C166F0C4C167F0CDC019F08B
:10094800CEC01AF0000E1ABEFF0E1B6E1C6E010EF2
:1009580008ECA0F019C060F01AC061F01BC062F08A
:100968001CC063F036EC96F060C075F061C076F09C
:1009780062C077F063C078F058ECA4F075C0A2F0BC
:1009880076C0A3F077C0A4F078C0A5F0BDC164F02C
:10099800BEC165F0BFC166F0C0C167F0C9C019F03B
:1009A800CAC01AF0000E1ABEFF0E1B6E1C6E010E96
:1009B80008ECA0F019C060F01AC061F01BC062F02A
:1009C8001CC063F036EC96F060C075F061C076F03C
:1009D80062C077F063C078F058ECA4F0000175515C
:1009E800A225C16F7651A321C26FC4BF05EF05F0E0
:1009F800C45109E1810EC35DD8A005EF05F007EFEA
:100A080005F00DEF05F0000EC46F800EC36F1FEFE9
:100A180005F0C4AF19EF05F0810EC35DFF0EC45990
:100A2800D8B019EF05F01BEF05F01FEF05F0FF0E2A
:100A3800C46F810EC36FC2BF2BEF05F0C25109E12D
:100A4800810EC15DD8A02BEF05F02DEF05F033EF37
:100A580005F0000EC26F800EC16F45EF05F0C2AF02
:100A68003FEF05F0810EC15DFF0EC259D8B03FEFD0
:100A780005F041EF05F045EF05F0FF0EC26F810E5E
:100A8800C16F7F0EC325C36F000EC421C46F7F0ED4
:100A9800C125C16F000EC221C26F0E01C5AF57EF4D
:100AA80005F059EF05F074EF05F00001E22B630E35
:100AB800E26561EF05F063EF05F06CEF05F0E16BBF
:100AC8007F0EA76E7F0EAB6E640EE26F7AEF05F0B5
:100AD800010EE16FC3C0A7FFC1C0ABFF7AEF05F0FD
:100AE800C3C0A7FFC1C0ABFF0001E16B0E01CE9BE5
:100AF800AEC0F5FFADC0F8FFACC0F7FFABC0F6FF66
:100B0800AAC0F4FFA9C0F3FFA8C0E0FFA7C0E8FF90
:0C0B1800A6C0D8FF4690100028EFA8F0FF
:10FE6600006937AC3168212233B40F14336821A2FC
:10FE7600333863ED3EDA0F493F5E987B3FDA0FC9B0
:10FE86003F25AC7C3D4712DABD0DF5113E98CA4CB4
:10FE9600BEA9AAAA3E2020202020204932432020A5
:10FEA600202020202000202020202046494E4945A1
:10FEB60020202020202000202020204932432020FE
:10FEC6004F4B20202020200020202020454E20437C
:10FED6004F555253202020200020203E4F55493CAC
:10FEE6002020204E4F4E202020002020204F554914
:10FEF6002020203E4E4F4E3C2020002043414C49BE
:10FF0600422E20434F4D5041532020004143544937
:10FF1600564552205243204254203F200043414C34
:10FF260049422E20424F5553534F4C4520002052F4
:10FF36004544454D415252455A2D4D4F49200020CA
:10FF4600494E495449414C49534154494F4E20006A
:10FF56002020434F4E4E454354494F4E2042542095
:10FF6600004C4944415220434F4D504153202020DC
:10FF760032002041435449564552204C494441528F
:10FF8600203F0043414C494252455220434F4D5079
:10FF960041533F00494E4954204932432045434886
:10FFA6004F55454500454E20415454454E54452035
:10FFB6004427554E4500414C4558414E4452452034
:10FFC600554C5249434800524F424F5420434143F7
:10FFD60048414E204255540020495554204445205E
:10FFE60048414755454E415500616E673A00443ACF
:09FFF60000473A002B002D000029
:020000040001F9
:100000009EC08CF19FC08DF1A0C08EF1A1C08FF178
:1000100001018FBF0EEF80F011EF80F0010E12EFA3
:1000200080F0000E826F8F9F800E8E5D4C0E8F5978
:10003000D8A01DEF80F01FEF80F088EF80F09EC009
:1000400019F09FC01AF0A0C01BF0A1C01CF05CEC1E
:10005000A5F019501A10D8A430EF80F032EF80F0DC
:100060003CEF80F09EC09EF09FC09FF0A0C0A0F02B
:10007000A1C0A1F0C7EF83F0830EF66EFE0EF76EFF
:10008000000EF86E0900F5CF75F00900F5CF76F097
:100090000900F5CF77F00A00F5CF78F0000E0001E7
:1000A000796F000E7A6F800E7B6F030E7C6F8FEC82
:1000B0008FF075C088F176C089F177C08AF178C079
:1000C0008BF101018251D8A468EF80F06AEF80F0D3
:1000D00074EF80F088C19EF089C19FF08AC1A0F0C2
:1000E0008BC1A1F0C7EF83F088C119F089C11AF064
:1000F0008AC11BF08BC11CF0C2ECA9F019C09EF0A4
:100100001AC09FF01BC0A0F01CC0A1F0C7EF83F085
:10011000E00E8E5D3E0E8F59D8B091EF80F093EFD8
:1001200080F0A3EF80F0800E8E5D390E8F59D8B02D
:100130009CEF80F09EEF80F0A0EF80F032EF80F037
:100140008769E3EF81F09EC019F09FC01AF0A0C04C
:100150001BF0A1C01CF014ECAAF019C09EF01AC04C
:100160009FF01BC0A0F01CC0A1F0980E01018E5D95
:100170003F0E8F59D8B0BFEF80F0C1EF80F065EF30
:1001800081F0300E8E5D3F0E8F59D8B0CAEF80F0EF
:10019000CCEF80F021EF81F0876B000E0001796FCA
:1001A000000E7A6F800E7B6FBF0E7C6F000E646F47
:1001B000000E656F000E666F400E676F9EC060F0A8
:1001C0009FC061F0A0C062F0A1C063F036EC96F071
:1001D00060C075F061C076F062C077F063C078F0FF
:1001E0008FEC8FF075C085F076C086F077C087F011
:1001F00078C088F0000E0001796F000E7A6F000E53
:100200007B6F400E7C6F9EC075F09FC076F0A0C0E3
:1002100077F0A1C078F08FEC8FF075C089F076C0D0
:100220008AF077C08BF078C08CF013EC9AF085C020
:100230009EF086C09FF087C0A0F088C0A1F0E3EFD9
:1002400081F0010E876F000E0001796F000E7A6F4A
:10025000800E7B6FBF0E7C6F9EC075F09FC076F0E6
:10026000A0C077F0A1C078F08FEC8FF075C085F05A
:1002700076C086F077C087F078C088F0000E000165
:10028000796F000E7A6F800E7B6F3F0E7C6F9EC081
:1002900075F09FC076F0A0C077F0A1C078F08FEC29
:1002A0008FF075C089F076C08AF077C08BF078C087
:1002B0008CF013EC9AF085C09EF086C09FF087C04A
:1002C000A0F088C0A1F0E3EF81F01C0E8E5D400E1F
:1002D0008F59D8B06EEF81F070EF81F0C6EF81F0EA
:1002E000020E876F000E0001796F000E7A6FC00E4C
:1002F0007B6FBF0E7C6F9EC075F09FC076F0A0C074
:1003000077F0A1C078F08FEC8FF075C085F076C0E3
:1003100086F077C087F078C088F0000E0001796F12
:10032000000E7A6F800E7B6F3F0E7C6F000E646F45
:10033000000E656FC00E666F3F0E676F9EC060F067
:100340009FC061F0A0C062F0A1C063F036EC96F0EF
:1003500060C075F061C076F062C077F063C078F07D
:100360008FEC8FF075C089F076C08AF077C08BF083
:1003700078C08CF013EC9AF085C09EF086C09FF098
:1003800087C0A0F088C0A1F0E3EF81F0030E876F73
:10039000000E0001856F000E866F800E876FBF0E06
:1003A000886F9EC089F09FC08AF0A0C08BF0A1C06A
:1003B0008CF013EC9AF085C09EF086C09FF087C049
:1003C000A0F088C0A1F09EC060F09FC061F0A0C006
:1003D00062F0A1C063F09EC064F09FC065F0A0C051
:1003E00066F0A1C067F036EC96F060C088F161C09D
:1003F00089F162C08AF163C08BF188C160F089C164
:1004000061F08AC162F08BC163F088C164F089C178
:1004100065F08AC166F08BC167F036EC96F060C07B
:1004200083F161C084F162C085F163C086F10D0E75
:100430000001796FF50E7A6F110E7B6F3E0E7C6FA7
:10044000250E646FAC0E656F7C0E666F3D0E676F98
:1004500083C160F084C161F085C162F086C163F040
:1004600036EC96F060C075F061C076F062C077F04F
:1004700063C078F08FEC8FF075C07AF176C07BF1B5
:1004800077C07CF178C07DF1A90E0001796FAA0ECA
:100490007A6FAA0E7B6F3E0E7C6F83C164F084C1BD
:1004A00065F085C166F086C167F07AC160F07BC1F6
:1004B00061F07CC162F07DC163F036EC96F060C003
:1004C00075F061C076F062C077F063C078F08FECB1
:1004D0008FF075C066F176C067F177C068F178C0BB
:1004E00069F166C160F067C161F068C162F069C11D
:1004F00063F088C164F089C165F08AC166F08BC180
:1005000067F036EC96F060C072F161C073F162C0C2
:1005100074F163C075F1980E0001796FCA0E7A6F9D
:100520004C0E7B6FBE0E7C6F470E646F120E656FB4
:10053000DA0E666FBD0E676F83C160F084C161F033
:1005400085C162F086C163F036EC96F060C075F04C
:1005500061C076F062C077F063C078F08FEC8FF006
:1005600075C07AF176C07BF177C07CF178C07DF1FF
:100570007AC160F07BC161F07CC162F07DC163F043
:1005800083C164F084C165F085C166F086C167F0FF
:1005900036EC96F060C076F161C077F162C078F118
:1005A00063C079F1010187BFDAEF82F0D8EF82F002
:1005B00022EF83F09EC064F09FC065F0A0C066F09B
:1005C000A1C067F076C179F077C17AF078C17BF08D
:1005D00079C17CF072C175F073C176F074C177F0A7
:1005E00075C178F08FEC8FF075C060F076C061F067
:1005F00077C062F078C063F036EC96F060C07EF1B0
:1006000061C07FF162C080F163C081F19EC085F05E
:100610009FC086F0A0C087F0A1C088F07EC189F09D
:100620007FC18AF080C18BF081C18CF01EECA9F0F3
:1006300085C09EF086C09FF087C0A0F088C0A1F062
:10064000C7EF83F09EC064F09FC065F0A0C066F065
:10065000A1C067F076C179F077C17AF078C17BF0FC
:1006600079C17CF072C175F073C176F074C177F016
:1006700075C178F08FEC8FF075C060F076C061F0D6
:1006800077C062F078C063F036EC96F060C07EF11F
:1006900061C07FF162C080F163C081F101018751C7
:1006A000040D670EF324F66EFE0EF420F76EF86A62
:1006B000000EF8220900F5CF89F00900F5CF8AF085
:1006C0000900F5CF8BF00A00F5CF8CF07EC185F0E4
:1006D0007FC186F080C187F081C188F01EECA9F04F
:1006E00085C06AF186C06BF187C06CF188C06DF17E
:1006F0009EC089F09FC08AF0A0C08BF0A1C08CF092
:100700006AC185F06BC186F06CC187F06DC188F05D
:100710001EECA9F085C06EF186C06FF187C070F144
:1007200088C071F101018751040D770EF324F66E34
:10073000FE0EF420F76EF86A000EF8220900F5CFDD
:1007400085F00900F5CF86F00900F5CF87F00A00A3
:10075000F5CF88F06EC189F06FC18AF070C18BF05F
:1007600071C18CF01EECA9F085C088F186C089F1BA
:1007700087C08AF188C08BF101018251D8A4C3EFF0
:1007800083F0C5EF83F074EF80F06AEF80F0120021
:10079000F3CF17F0F4CF18F00E01CAA9D2EF83F00F
:1007A000D4EF83F082EF84F0C2A9D9EF83F0DBEFBE
:1007B00083F082EF84F00F0112A1E1EF83F0E3EF09
:1007C00083F024EF84F0CDCFC9F1CECFCAF101017F
:1007D000CB6BCC6B000ECE6E000ECD6E90BCF3EFEB
:1007E00083F0F5EF83F0FCEF83F08EB0FAEF83F047
:1007F000FCEF83F00AEF84F090AC01EF84F003EF9C
:1008000084F01AEF84F08EB008EF84F00AEF84F0E1
:100810001AEF84F0CC1FCB1FCA1FC96D000ECA236C
:10082000CB23CC23010E3427000E35233623372368
:1008300022EF84F0FF0E3427FF0E3523FF0E362300
:10084000FF0E37230F0112911AAB29EF84F02BEF23
:1008500084F06CEF84F0C1CFC5F1C2CFC6F10101C5
:10086000C76BC86B000EC26E000EC16E8FAA3BEF45
:1008700084F03DEF84F044EF84F08FA842EF84F0E1
:1008800044EF84F052EF84F08FBA49EF84F04BEFDD
:1008900084F062EF84F08FA850EF84F052EF84F080
:1008A00062EF84F0C81FC71FC61FC56D000EC623A8
:1008B000C723C823010E3027000E312332233323F0
:1008C0006AEF84F0FF0E3027FF0E3123FF0E322334
:1008D000FF0E33230F011A9B0ABD71EF84F073EFF3
:1008E00084F07AEF84F01AA578EF84F07AEF84F040
:1008F00080EF84F0010E0001E56F0F010A9D1A954B
:100900000E01CA99CEA187EF84F089EF84F09FEFA2
:1009100084F0C6A18EEF84F090EF84F09FEF84F016
:10092000D90E0101C96F530ECA6F010ECB6F000EB5
:10093000CC6F0E01CE91000ECE6E000ECD6ECEA904
:10094000A4EF84F0A6EF84F0BCEF84F0C6A9ABEF6F
:1009500084F0ADEF84F0BCEF84F0D90E0101C56FD7
:10096000530EC66F010EC76F000EC86F0E01CE99F1
:10097000000EC26E000EC16EC5A5C1EF84F0C3EFBC
:1009800084F059EF85F0CDA5C8EF84F0CAEF84F06C
:1009900059EF85F04150D8B4D0EF84F0D2EF84F015
:1009A00006EF85F04250D8A4D8EF84F0DAEF84F057
:1009B00006EF85F0F3EF84F040504024926F010E73
:1009C000436E06EF85F03FC092FE020E436E06EFC7
:1009D00085F0E8C092FE030E436E06EF85F0978522
:1009E000436A06EF85F04350000AD8B4DCEF84F088
:1009F000010AD8B4E3EF84F0030AD8B4E9EF84F035
:100A0000010AD8B4EFEF84F006EF85F04150D8A486
:100A10000CEF85F00EEF85F058EF85F04250D8B41A
:100A200014EF85F016EF85F058EF85F03DEF85F077
:100A300040504024926F010E436E58EF85F03FC046
:100A400092FE020E436E58EF85F09781030E436EBF
:100A500058EF85F04050020DF328926F040E436E5C
:100A600058EF85F09787050E436E58EF85F0978510
:100A700092CEE8F0436A58EF85F04350000AD8B4AC
:100A800018EF85F0010AD8B41FEF85F0030AD8B437
:100A900025EF85F0010AD8B42AEF85F0070AD8B40B
:100AA00032EF85F0010AD8B437EF85F058EF85F0C2
:100AB000CD95C5AB5EEF85F060EF85F021EF86F058
:100AC000CDAB65EF85F067EF85F021EF86F09DB443
:100AD0006CEF85F06EEF85F01CEF86F09DB273EF42
:100AE00085F075EF85F01CEF86F0F1EF85F0992821
:100AF000D8A47DEF85F07FEF85F083EF85F0010EC0
:100B00003B6E20EF86F03B6A20EF86F0FE0E9918D0
:100B1000D8A48DEF85F08FEF85F083EF85F0020E7E
:100B20003B6E20EF86F099CF31F0326A3150326E51
:100B3000316A030E3B6E20EF86F099503124316EFE
:100B4000000E3220326E31C0BBF032C0BCF0040E59
:100B50003B6E20EF86F099CF2DF02E6A2D502E6E31
:100B60002D6A050E3B6E20EF86F099502D242D6ED8
:100B7000000E2E202E6E2DC0B7F02EC0B8F0060E3F
:100B80003B6E20EF86F099CF33F0346A3350346EE9
:100B9000336A070E3B6E20EF86F099503324336E94
:100BA000000E3420346E33C0BDF034C0BEF0080EE9
:100BB0003B6E20EF86F099CF2FF0306A2F50306EC9
:100BC0002F6A090E3B6E20EF86F099502F242F6E6E
:100BD000000E3020306E2FC0B9F030C0BAF083EF75
:100BE00085F03B50000AD8B477EF85F0010AD8B4FD
:100BF00086EF85F0030AD8B493EF85F0010AD8B4E4
:100C00009DEF85F0070AD8B4ABEF85F0010AD8B4A0
:100C1000B5EF85F0030AD8B4C3EF85F0010AD8B464
:100C2000CDEF85F00F0AD8B4DBEF85F0010AD8B418
:100C3000E5EF85F020EF86F09D989D8899509950BA
:100C4000CD9BC5AF26EF86F028EF86F05FEF87F0EB
:100C5000CDAF2DEF86F02FEF86F05FEF87F09DB5DB
:100C600034EF86F036EF86F059EF87F09DB33BEF17
:100C700086F03DEF86F059EF87F099CE3CF046EFD5
:100C800087F0F10E3C18D8A448EF86F04AEF86F0C2
:100C900050EF86F0010E396E010E3A6E5DEF87F06F
:100CA000F20E3C18D8A457EF86F059EF86F05EEFAD
:100CB00086F03968010E3A6E5DEF87F0F30E3C184E
:100CC000D8A465EF86F067EF86F06AEF86F0386AA1
:100CD0005AEF86F0F40E3C18D8A471EF86F073EF4B
:100CE00086F077EF86F0386A3A6A5DEF87F073EF47
:100CF00086F05B0E3C607FEF86F081EF86F087EF39
:100D000086F03CC038F0020E3A6E5DEF87F03A6A2A
:100D10005DEF87F0B50E3C6090EF86F092EF86F0C5
:100D200087EF86F03850D8B498EF86F09AEF86F0C7
:100D300020EF87F03850096E0A6AA60E3C240B6E2D
:100D40000C6AFF0E0C220C340C300E6E0B300D6E44
:100D500009500D02F3CF0FF0F4CF10F00E02F35054
:100D600010260A500D02F35010260FC001F010C0DB
:100D700002F0000E046E5A0E036EB7ECA6F001509E
:100D8000385C116E0250D8A00228126A125E39C077
:100D900013F0146A13BE140611501302F3CF15F0AA
:100DA000F4CF16F01402F350162612501302F3502B
:100DB000162615C0C7F016C0C8F039C009F00A6A77
:100DC00009BE0A0638500B6E0C6AA60E3C240D6E46
:100DD0000E6AFF0E0E220E340E30106E0D300F6EA6
:100DE0000B500F02F3CF11F0F4CF12F01002F350BA
:100DF00012260C500F02F350122611C001F012C03F
:100E000002F0000E046E5A0E036EB7ECA6F03850D6
:100E10000124136E000E0220146E09501302F3CF4A
:100E200015F0F4CF16F01402F35016260A501302F0
:100E3000F350162615C0C5F016C0C6F03DEF87F07A
:100E40005A0E096E000E0A6E3C50095E000E0A5AD8
:100E50000A340A300B6E09300001C76F0BC0C8F0AE
:100E6000A60E3C24096E0A6AFF0E0A220A340A30D2
:100E70000B6E0930C56F0BC0C6F0030E3A6E5DEF06
:100E800087F03A6A0001E26B5DEF87F03A50000AA2
:100E9000D8B441EF86F0010AD8B479EF86F0030A9E
:100EA000D8B48AEF86F0010AD8B441EF87F05DEF3D
:100EB00087F09D999D89995199510E01CD9F18C038
:100EC000F4FF17C0F3FF4692110083908698879233
:100ED00083960E01E18DE18BE189E185E183E38D6C
:100EE000E383E385E381E487E589E581E681840E98
:100EF0000F01116F196B216B266B010E2E6FF60E11
:100F0000886EC10E896E3D0E8A6E4D0E8B6E090E77
:100F10008C6E400E106FC00E186F0C0E206F256B7C
:100F20002D6B800E606E596B5A6B5B6B1F0E576F8B
:100F3000586B0E01956B220E936F280E966F986B6F
:100F40009E989E9C9E8A9D9C9D889D8E9F869E9429
:100F5000220E9B6E9E999E9D9E8B9D9D9D899D8F31
:100F60009F879E95220E9B6FBC68A50EAE6E9C0E51
:100F7000AC6E7F0EAB6EAA6A9C0EA86E7F0EA76E3B
:100F8000A66A050EFD6F060EFE6F110E0F01016FB2
:100F9000120E026F1A0E0E018F6F1B0E906F180E3D
:100FA0008D6F0B0E0F01006F100E0E01B56F090E45
:100FB000F86F370ECF6E010ED26E900EBD6E010E21
:100FC000BF6E260EC96E010ECC6E730EC86E600E1B
:100FD000C76E370EC36E010EC66EE00EB16E010E07
:100FE000B36EFA0EB06EF28EF28EF28CF28AF28C42
:100FF000C289BA89C29BBA9BC681BE81C693BE9381
:10100000C685BE95C697BE97C689BE89C68BBE9B50
:10101000CD95C585BD85BD8BC58BBD8FC59F0F018A
:101020001B851C850B8D0C8D138114811B8B1C8BD8
:10103000000E56ECA6F0010ED4ECAAF0DBECA5F005
:1010400066ECAAF083868782000E01019E6F000E77
:10105000F9ECA9F0CD0E01019E6FFF0E9F6F42ECDF
:10106000A9F0000E01019E6F010EF9ECA9F0670EC8
:1010700001019E6FFF0E9F6F42ECA9F0290E020145
:101080003B6F960E3A6F7F0EE82EFED73A2FFCD7B5
:101090003B2FFAD7000E01019E6F000EF9ECA9F06C
:1010A000BC0E01019E6FFF0E9F6F42ECA9F0000E77
:1010B00001019E6F010EF9ECA9F0DE0E01019E6F99
:1010C000FF0E9F6F42ECA9F0290E02013B6F960EB6
:1010D0003A6F7F0EE82EFED73A2FFCD73B2FFAD778
:1010E000E2ECA0F0000E01019E6F000EF9ECA9F0F9
:1010F000780E01019E6FFF0E9F6F42ECA9F0000E6B
:101100000101916F000E906FFDECAAF0E3EF88F003
:10111000F8ECAAF0E90E0101905DFD0E9159D8A0FE
:1011200094EF88F096EF88F09CEF88F0000E916FB6
:10113000000E906FFDECAAF0F8ECAAF001019151BD
:1011400009E1020E905DD8A0A8EF88F0AAEF88F020
:10115000CEEF88F0000E916F010E906FFDECAAF0BB
:10116000CEEF88F0000E9E6F010EF9ECA9F0DF0EB5
:1011700001019E6FFE0E9F6F42ECA9F0E3EF88F035
:10118000000E9E6F010EF9ECA9F0F00E01019E6FAA
:10119000FE0E9F6F42ECA9F0E3EF88F0F8ECAAF0A6
:1011A00001019151000AD8B4D8EF88F0E3EF88F03C
:1011B0009051000AD8B4B2EF88F0010AD8B4C0EF59
:1011C00088F0E3EF88F086ECA9F00009D8B4EBEFE3
:1011D00088F0EDEF88F088EF88F0F8ECAAF00101D4
:1011E00090519111D8A4F7EF88F0F9EF88F0FCEF57
:1011F00088F0010E56ECA6F0110E02013B6F3C0E7A
:101200003A6FCB0EE82EFED73A2FFCD73B2FFAD7FA
:10121000000E01019E6F000EF9ECA9F0890E01018C
:101220009E6FFF0E9F6F42ECA9F0000E0101916FBF
:10123000000E906FFDECAAF079EF89F0F8ECAAF0BF
:10124000E90E0101905DFD0E9159D8A02AEF89F0B9
:101250002CEF89F032EF89F0000E916F000E906F45
:10126000FDECAAF0F8ECAAF00101915109E1020E9F
:10127000905DD8A03EEF89F040EF89F064EF89F0EF
:10128000000E916F010E906FFDECAAF064EF89F0F3
:10129000000E9E6F010EF9ECA9F0DF0E01019E6FAA
:1012A000FE0E9F6F42ECA9F079EF89F0000E9E6F61
:1012B000010EF9ECA9F0F00E01019E6FFE0E9F6F7A
:1012C00042ECA9F079EF89F0F8ECAAF00101915114
:1012D000000AD8B46EEF89F079EF89F09051000AD6
:1012E000D8B448EF89F0010AD8B456EF89F079EF05
:1012F00089F086ECA9F00009D8B481EF89F083EF7A
:1013000089F01EEF89F0F8ECAAF0010190519111DB
:10131000D8A48DEF89F08FEF89F09DEF89F0290E29
:1013200002013B6F960E3A6F7F0EE82EFED73A2FE2
:10133000FCD73B2FFAD7EBEC91F0210E02013B6F6B
:10134000780E3A6F980EE82EFED73A2FFCD73B2F37
:10135000FAD70000000E01019E6F000EF9ECA9F013
:10136000120E01019E6FFF0E9F6F42ECA9F0000E5E
:101370000101916F010E906FFDECAAF01BEF8AF056
:10138000F8ECAAF0E90E0101905DFD0E9159D8A08C
:10139000CCEF89F0CEEF89F0D4EF89F0000E916F99
:1013A000000E906FFDECAAF0F8ECAAF0010191514B
:1013B00009E1020E905DD8A0E0EF89F0E2EF89F03C
:1013C00006EF8AF0000E916F010E906FFDECAAF00F
:1013D00006EF8AF0000E9E6F010EF9ECA9F0DF0E09
:1013E00001019E6FFE0E9F6F42ECA9F01BEF8AF089
:1013F000000E9E6F010EF9ECA9F0F00E01019E6F38
:10140000FE0E9F6F42ECA9F01BEF8AF0F8ECAAF0F9
:1014100001019151000AD8B410EF8AF01BEF8AF055
:101420009051000AD8B4EAEF89F0010AD8B4F8EF75
:1014300089F01BEF8AF086ECA9F00009D8B423EFFD
:101440008AF025EF8AF0C0EF89F0F8ECAAF00101EC
:1014500090519111D8A42FEF8AF031EF8AF034EF38
:101460008AF0010E85ECAAF0000E0101916F000ECA
:10147000906FFDECAAF0290E02013B6F960E3A6FB9
:101480007F0EE82EFED73A2FFCD73B2FFAD766EC1B
:10149000AAF0120004C10DF205C10EF206C10FF24E
:1014A00007C110F29EC10DF29FC10EF2A0C10FF252
:1014B000A1C110F200C105F201C106F202C107F29A
:1014C00003C108F2A2C105F2A3C106F2A4C107F24A
:1014D000A5C108F20DC2A6F10EC2A7F10FC2A8F174
:1014E00010C2A9F1180E7BEF8AF00101D890A93340
:1014F000A833A733A633E82E75EF8AF0A651020170
:10150000036F046B05C2A6F106C2A7F107C2A8F1DA
:1015100008C2A9F1180E93EF8AF00101D890A933FF
:10152000A833A733A633E82E8DEF8AF0A651020127
:10153000016F026B10BF9FEF8AF0A2EF8AF0010EDD
:10154000A3EF8AF0000E006FD89005350101A66F59
:10155000020106350101A76F020107350101A86FDD
:10156000020108350101A96FA651A711A811A911FF
:10157000D8B4BDEF8AF0BFEF8AF0DDEF8AF0A2C1E8
:1015800090F1A3C191F1A4C192F1A5C193F1DCEC5A
:10159000A4F0010190519111D8B4D1EF8AF0D3EFAA
:1015A0008AF0DDEF8AF0020103290411D8A4DBEFF1
:1015B0008AF0DDEF8AF0F0EF8AF0FF0E02010D6F86
:1015C000FF0E0E6FFF0E0F6F7F0E106F0DC29EF19C
:1015D0000EC29FF10FC2A0F110C2A1F117EF8DF062
:1015E000D8900D350101A66F02010E350101A76FDC
:1015F00002010F350101A86F020110350101A96F29
:10160000D890020105350101AA6F020106350101DA
:10161000AB6F020107350101AC6F02010835010112
:10162000AD6FA651AA5DA751AB59A851AC59A951AC
:10163000AD59D8A01EEF8BF020EF8BF068EF8BF048
:10164000D890020105350101A66F0201063501019E
:10165000A76F020107350101A86F020108350101DA
:10166000A96FD89002010D350101AA6F02010E3554
:101670000101AB6F02010F350101AC6F02011035A2
:101680000101AD6FA651AA190DE1A751AB190AE1ED
:10169000A851AC1907E1A951AD19D8A452EF8BF0AC
:1016A00054EF8BF05EEF8BF0000E9E6F000E9F6F7D
:1016B000000EA06F000EA16F17EF8DF09EC19EF17E
:1016C0009FC19FF1A0C1A0F1A1C1A1F117EF8DF0C1
:1016D000020103510411D8A470EF8BF072EF8BF06C
:1016E000B0EF8BF00DC2A6F10EC2A7F10FC2A8F1A8
:1016F00010C2A9F1090ED8900101A637A737A83763
:10170000A937E82E7BEF8BF0A6C109F2A7C10AF238
:10171000A8C10BF2A9C10CF296EF8BF00307D8A079
:101720000407D89009370A370B370C3702010CAF82
:101730009CEF8BF09EEF8BF08EEF8BF00351010846
:101740000101A66FA629ABEF8BF0D89002010D37EF
:101750000E370F371037E82EA5EF8BF0B9EF8BF06F
:10176000FF0E0D17FF0E0E177F0E0F17000E10172E
:101770000F8F020101510211D8A4C1EF8BF0C3EF0A
:101780008BF001EF8CF005C2A6F106C2A7F107C2EB
:10179000A8F108C2A9F1090ED8900101A637A73710
:1017A000A837A937E82ECCEF8BF0A6C109F2A7C164
:1017B0000AF2A8C10BF2A9C10CF2E7EF8BF0010706
:1017C000D8A00207D89009370A370B370C37020127
:1017D0000CAFEDEF8BF0EFEF8BF0DFEF8BF0015103
:1017E00001080101A66FA629FCEF8BF0D890020139
:1017F0000537063707370837E82EF6EF8BF046EF48
:101800008CF0FF0E0517FF0E06177F0E0717000E50
:101810000817078F46EF8CF0020105510D5D096F27
:1018200006510E590A6F07510F590B6F0851105985
:101830000C6F0CBF1EEF8CF020EF8CF03EEF8CF0A5
:1018400009510A110B110C11D8A429EF8CF02BEFC0
:101850008CF036EF8CF0000E01019E6F000E9F6F32
:10186000000EA06F000EA16F17EF8DF009C20DF2F0
:101870000AC20EF20BC20FF20CC210F2D8900D3752
:101880000E370F3710370307D8A0040702010351A2
:10189000015D0251800A0101A66F02010451800A14
:1018A0000101A659D8A057EF8CF059EF8CF00CEF3E
:1018B0008CF0020105510D5D096F06510E590A6F3A
:1018C00007510F590B6F085110590C6F0CBF6BEF7C
:1018D0008CF06DEF8CF096EF8CF009510A110B1122
:1018E0000C11D8A476EF8CF078EF8CF083EF8CF0AD
:1018F000000E01019E6F000E9F6F000EA06F000E84
:10190000A16F17EF8DF009C20DF20AC20EF20BC2E1
:101910000FF20CC210F296EF8CF00201D8900D3746
:101920000E370F3710370307D8A004070DC2A6F1F2
:101930000EC2A7F10FC2A8F110C2A9F1180EA7EFAD
:101940008CF00101D890A933A833A733A633E82E31
:10195000A1EF8CF0A651A711A811A911D8B4B3EF2B
:101960008CF0B5EF8CF08DEF8CF0020104BFC1EF6D
:101970008CF0045108E10305D8A0C1EF8CF0C3EF4F
:101980008CF0EEEF8CF0000E0D5F000E0E5B800E03
:101990000F5B000E105B03510101A66F02010451A1
:1019A0000101A76FA86BA96B170ED890A637A737B0
:1019B000A837A937E82ED5EF8CF0A65102010D13F8
:1019C0000101A75102010E130101A85102010F13D9
:1019D0000101A9510201101300EF8DF0035101081C
:1019E0000101A66FA629A76FFCEF8CF0D890020129
:1019F00010330F330E330D330101A72FF6EF8CF0A8
:101A000002010051D8B407EF8DF009EF8DF0E6EF39
:101A10008AF00D510E110F111011D8B412EF8DF084
:101A200014EF8DF0E6EF8AF0108FE6EF8AF01200E7
:101A300002010351800B086F035103250A6F02AFA7
:101A400024EF8DF026EF8DF027EF8DF00A810A51FB
:101A5000D8B42DEF8DF02FEF8DF043EF8DF00A29E4
:101A6000D8A435EF8DF037EF8DF03FEF8DF0000EFD
:101A7000006F000E016F000E026F000E036F028FE9
:101A8000036B4BEF8DF0000E006F000E016F000E28
:101A9000026F000E036F0751800B096F085109197F
:101AA000D8B455EF8DF057EF8DF058EF8DF0088DCD
:101AB00007510725096F06AF60EF8DF062EF8DF0DB
:101AC00063EF8DF009810951D8B469EF8DF06BEFA8
:101AD0008DF07FEF8DF00929D8A471EF8DF073EFB1
:101AE0008DF07BEF8DF0000E046F000E056F000E81
:101AF000066F000E076F068F076B87EF8DF0000EE5
:101B0000046F000E056F000E066F000E076F0A517E
:101B1000095DD8B08EEF8DF090EF8DF0B7EF8DF0BE
:101B200008AD95EF8DF097EF8DF099EF8DF0800E69
:101B3000081B0AC20BF209C20AF20BC209F200C268
:101B40000BF204C200F20BC204F201C20BF205C296
:101B500001F20BC205F202C20BF206C202F20BC284
:101B600006F203C20BF207C203F20BC207F20B6BC1
:101B70000A5109C2B7F10101B86BB75F000EB85B3B
:101B8000B8BFCCEF8DF0B85109E11A0EB75DD8A0FF
:101B9000CCEF8DF0CEEF8DF006EF8EF0020100510C
:101BA000011102110311D8A4D8EF8DF0DBEF8DF0F5
:101BB000010EDCEF8DF0000E0B6F000E006F000EBB
:101BC000016F000E026F000E036F09C20AF210EFE0
:101BD0008EF00BA1EEEF8DF0F0EF8DF0F6EF8DF0C3
:101BE000D8900B3101090B6FF8EF8DF0D8900B33C3
:101BF00000A1FDEF8DF0FFEF8DF000EF8EF00B8F69
:101C0000033503330233013300330A2B0201095138
:101C10000A5DD8A00EEF8EF010EF8EF0E9EF8DF098
:101C200008BD15EF8EF017EF8EF057EF8EF00A51CA
:101C3000D8A41DEF8EF01FEF8EF029EF8EF0000E6E
:101C4000006F000E016F000E026F000E036F8EEF2B
:101C50008FF004510027055101230651022307513B
:101C6000032303A136EF8EF038EF8EF0F7EF8EF0FE
:101C70000BA13DEF8EF03FEF8EF045EF8EF0D89048
:101C80000B3101090B6F47EF8EF0D8900B3300A199
:101C90004CEF8EF04EEF8EF04FEF8EF00B8F033542
:101CA00003330233013300330A2BF7EF8EF0045174
:101CB000005D05510159065102590351800A010185
:101CC000B76F02010751800A0101B759D8B06BEF15
:101CD0008EF06DEF8EF0A7EF8EF002010051045DE3
:101CE0000101B76F0201015105590101B86F0201ED
:101CF000025106590101B96F02010351075901014F
:101D0000BA6FFF0EB7250201006FFF0E0101B82167
:101D10000201016FFF0E0101B9210201026FFF0EE6
:101D20000101BA210201036F800E081B0B6D0B51DC
:101D3000D8A49DEF8EF09FEF8EF0B0EF8EF0010EE5
:101D40000027000E012302230323B0EF8EF00201CF
:101D50000451005F0551015B0651025B0751035BB3
:101D60000051011102110311D8A4B9EF8EF0BBEF9D
:101D70008EF0F0EF8EF00B51D8A4C1EF8EF0C3EFD0
:101D80008EF0F0EF8EF0000E006F000E016F000E6F
:101D9000026F000E036F8EEF8FF0D890003701377F
:101DA000023703370BAFD7EF8EF0D9EF8EF0DAEFB3
:101DB0008EF000810BA1DFEF8EF0E1EF8EF0E5EF0A
:101DC0008EF0D8800B37E7EF8EF0D8900B370A51A2
:101DD000D8B4EDEF8EF0EFEF8EF0F0EF8EF00A0753
:101DE00002AFF5EF8EF0F7EF8EF0CDEF8EF0096BCE
:101DF0000BAFFDEF8EF0FFEF8EF01AEF8FF00BC2FE
:101E0000B7F17F0E0101B717D8B409EF8FF00BEFD0
:101E10008FF010EF8FF0010E0201096F1AEF8FF0B3
:101E2000020100A116EF8FF018EF8FF01AEF8FF07C
:101E30000BEF8FF00951D8B420EF8FF022EF8FF025
:101E40004FEF8FF0010E0027000E01230223032322
:101E500003A12DEF8FF02FEF8FF04FEF8FF000C227
:101E6000B7F101C2B8F102C2B9F103C2BAF101017E
:101E7000BA35BA33B933B833B733B7C100F2B8C1E2
:101E800001F2B9C102F2BAC103F202010A29D8B4BF
:101E90004CEF8FF04EEF8FF04FEF8FF00A2B0A29A7
:101EA000D8B455EF8FF057EF8FF05FEF8FF00A51F6
:101EB000D8A45DEF8FF05FEF8FF070EF8FF0000E22
:101EC000006F000E016F000E026F000E036F0A51CB
:101ED000D8A46DEF8FF06FEF8FF070EF8FF0086B7D
:101EE0000AA175EF8FF077EF8FF07AEF8FF0028F06
:101EF0007BEF8FF0029FD8900A31036F08AF83EF1A
:101F00008FF085EF8FF086EF8FF0038F00C200F225
:101F100001C201F202C202F203C203F21200000186
:101F20007851800B816F78517825836F77AF9BEF65
:101F30008FF09DEF8FF09EEF8FF083818351D8B4A7
:101F4000A4EF8FF0A6EF8FF0BAEF8FF08329D8A41B
:101F5000ACEF8FF0AEEF8FF0B6EF8FF0000E756F35
:101F6000000E766F000E776F000E786F778F786BAC
:101F7000C2EF8FF0000E756F000E766F000E776F58
:101F8000000E786F7C51800B826F81518219D8B41A
:101F9000CCEF8FF0CEEF8FF0CFEF8FF0818D7C51B3
:101FA0007C25826F7BAFD7EF8FF0D9EF8FF0DAEF20
:101FB0008FF082818251D8B4E0EF8FF0E2EF8FF0A2
:101FC000F6EF8FF08229D8A4E8EF8FF0EAEF8FF0D8
:101FD000F2EF8FF0000E796F000E7A6F000E7B6FBC
:101FE000000E7C6F7B8F7C6BFEEF8FF0000E796FA5
:101FF000000E7A6F000E7B6F000E7C6F8351825D46
:10200000D8B005EF90F007EF90F02EEF90F081AD93
:102010000CEF90F00EEF90F010EF90F0800E811B1F
:1020200083C084F082C083F084C082F075C084F0E5
:1020300079C075F084C079F076C084F07AC076F00B
:1020400084C07AF077C084F07BC077F084C07BF0E6
:1020500078C084F07CC078F084C07CF0846B8351BD
:1020600082C07DF07E6B7D5F000E7E5B7EBF42EFA7
:1020700090F07E5109E11A0E7D5DD8A042EF90F0FC
:1020800044EF90F07BEF90F0755176117711781155
:10209000D8A44DEF90F050EF90F0010E51EF90F07A
:1020A000000E846F000E756F000E766F000E776F56
:1020B000000E786F82C083F084EF90F084A163EF0C
:1020C00090F065EF90F06BEF90F0D89084310109BB
:1020D000846F6DEF90F0D890843375A172EF90F01B
:1020E00074EF90F075EF90F0848F78357833773314
:1020F00076337533832B8251835DD8A082EF90F0C5
:1021000084EF90F05EEF90F081BD89EF90F08BEF5F
:1021100090F0CBEF90F08351D8A491EF90F093EF33
:1021200090F09DEF90F0000E756F000E766F000E30
:10213000776F000E786FEAEF91F0795175277A5139
:1021400076237B5177237C51782378A1AAEF90F0F6
:10215000ACEF90F058EF91F084A1B1EF90F0B3EFB5
:1021600090F0B9EF90F0D89084310109846FBBEF03
:1021700090F0D890843375A1C0EF90F0C2EF90F04A
:10218000C3EF90F0848F78357833773376337533B7
:10219000832B58EF91F07951755D7A5176597B51C7
:1021A00077597851800A7D6F7C51800A7D59D8B06B
:1021B000DCEF90F0DEEF90F009EF91F07551795D72
:1021C0007D6F76517A597E6F77517B597F6F785149
:1021D0007C59806FFF0E7D25756FFF0E7E21766F17
:1021E000FF0E7F21776FFF0E8021786F800E811B9D
:1021F000846D8451D8A4FFEF90F001EF91F011EFBE
:1022000091F0010E7527000E76237723782311EFC6
:1022100091F07951755F7A51765B7B51775B7C5198
:10222000785B7551761177117811D8A41AEF91F077
:102230001CEF91F051EF91F08451D8A422EF91F06E
:1022400024EF91F051EF91F0000E756F000E766F54
:10225000000E776F000E786FEAEF91F0D890753727
:1022600076377737783784AF38EF91F03AEF91F0DF
:102270003BEF91F0758184A140EF91F042EF91F036
:1022800046EF91F0D880843748EF91F0D8908437AA
:102290008351D8B44EEF91F050EF91F051EF91F09F
:1022A000830777AF56EF91F058EF91F02EEF91F052
:1022B000826B84AF5EEF91F060EF91F078EF91F078
:1022C00084C07DF07F0E7D17D8B469EF91F06BEF7D
:1022D00091F06FEF91F0010E826F78EF91F075A1A0
:1022E00074EF91F076EF91F078EF91F06BEF91F061
:1022F0008251D8B47EEF91F080EF91F0ABEF91F086
:10230000010E7527000E76237723782378A18BEFB3
:1023100091F08DEF91F0ABEF91F075C07DF076C04C
:102320007EF077C07FF078C080F0803580337F33D7
:102330007E337D337DC075F07EC076F07FC077F050
:1023400080C078F08329D8B4A8EF91F0AAEF91F07B
:10235000ABEF91F0832B8329D8B4B1EF91F0B3EFB9
:1023600091F0BBEF91F08351D8A4B9EF91F0BBEF9E
:1023700091F0CCEF91F0000E756F000E766F000EAD
:10238000776F000E786F8351D8A4C9EF91F0CBEF2F
:1023900091F0CCEF91F0816B83A1D1EF91F0D3EF6D
:1023A00091F0D6EF91F0778FD7EF91F0779FD8909B
:1023B0008331786F81AFDFEF91F0E1EF91F0E2EFE1
:1023C00091F0788F75C075F076C076F077C077F0B1
:1023D00078C078F012000201396B000E01019E6F87
:1023E000000EF9ECA9F0010E01019E6FFF0E9F6F28
:1023F00042ECA9F0000E01019E6F010EF9ECA9F06C
:10240000CE0E01019E6FFE0E9F6F42ECA9F0010EF1
:1024100043ECAAF0290E0201356F960E346F7F0E41
:10242000E82EFED7342FFCD7352FFAD70201386BB0
:10243000396B310E0101906F010E916F0C0E76EC2D
:10244000AAF0BC0E0201346F010EE82EFED7342F25
:10245000FCD700D0120E0101906F0C0EAFECAAF069
:10246000090E0201346F4E0EE82EFED7342FFCD732
:102470000000E8C0DFF00001E06B110E0101906F79
:102480000C0EAFECAAF0090E0201346F4E0EE82ECE
:10249000FED7342FFCD70000E8C0DDF00001DE6B72
:1024A000DF510201356F346B0001DD51020134252B
:1024B0000001DB6FDE51020135210001DC6FDBC062
:1024C00034F2DCC035F2000E020135BFFF0E366F6C
:1024D000376F01013C510201342501013C6F3D5130
:1024E0000201352101013D6F3E51020136210101FA
:1024F0003E6F3F510201372101013F6F140E906F73
:102500000C0EAFECAAF0090E0201346F4E0EE82E4D
:10251000FED7342FFCD70000E8C0D9F00001DA6BF9
:10252000130E0101906F0C0EAFECAAF0090E020120
:10253000346F4E0EE82EFED7342FFCD70000E8C0D3
:10254000D7F00001D86BD9510201356F346B00010F
:10255000D751020134250001D56FD8510201352130
:102560000001D66FD5C034F2D6C035F2000E02019C
:1025700035BFFF0E366F376F010138510201342528
:102580000101386F3951020135210101396F3A518A
:102590000201362101013A6F3B510201372101014D
:1025A0003B6F180E906F0C0EAFECAAF0090E0201F3
:1025B000346F4E0EE82EFED7342FFCD700000101F9
:1025C000D1510001DB5DDC51800A0201346F010151
:1025D000D251800A02013459D8B0F1EF92F0F3EFF2
:1025E00092F0F7EF92F0DBC0D1F1DCC0D2F1000144
:1025F000DB510101D35DD451800A0201346F000127
:10260000DC51800A02013459D8B009EF93F00BEF86
:1026100093F00FEF93F0DBC0D3F1DCC0D4F10101F4
:10262000CD510001D55DD651800A0201346F010100
:10263000CE51800A02013459D8B021EF93F023EF34
:1026400093F027EF93F0D5C0CDF1D6C0CEF10001C5
:10265000D5510101CF5DD051800A0201346F0001D4
:10266000D651800A02013459D8B039EF93F03BEFCC
:1026700093F03FEF93F0D5C0CFF1D6C0D0F1392B16
:102680001F0E396546EF93F048EF93F019EF92F083
:10269000000E0101BC6F1E0EBB6FDCEC9BF0090E3F
:1026A0000201356F1E0E346FE40EE82EFED7342F74
:1026B000FCD7352FFAD700000201382B0B0E3865F6
:1026C00064EF93F066EF93F018EF92F03CC190F155
:1026D0003DC191F13EC192F13FC193F1800E0101E4
:1026E000946F010E956F000E966F000E976FC9ECF8
:1026F000A2F090C1D3F091C1D4F038C190F139C1AA
:1027000091F13AC192F13BC193F1800E0101946FB6
:10271000010E956F000E966F000E976FC9ECA2F038
:1027200090C1D1F091C1D2F00101D151D35D02012C
:10273000346F0101D251D4590201356F34C290F186
:1027400035C291F10101000E91BFFF0E926F936FA0
:10275000010E2CEC9FF090C114F291C115F292C1C0
:1027600016F293C117F20101CD51CF5D0201366F10
:102770000101CE51D0590201376F36C290F137C2F4
:1027800091F10101000E91BFFF0E926F936F010E48
:102790002CEC9FF090C118F291C119F292C11AF27B
:1027A00093C11BF24AEC98F014C2B3F015C2B4F016
:1027B00016C2B5F017C2B6F00001B6BFE4EF93F051
:1027C000E2EF93F0F6EF93F0B3C090F1B4C091F163
:1027D000B5C092F1B6C093F1A5ECA9F090C1B3F0E9
:1027E00091C1B4F092C1B5F093C1B6F0000E0101F1
:1027F000906F000E55ECAAF0000E43ECAAF0C980D1
:10280000000E01019E6F000EF9ECA9F0230E0101EC
:102810009E6FFF0E9F6F42ECA9F0000E01019E6FAC
:10282000010EF9ECA9F0AC0E01019E6FFE0E9F6F38
:1028300042ECA9F0000E0101916F000E906FFDECCB
:10284000AAF012000101A151800BAA6FA151A1258C
:10285000B06FA0AF2EEF94F030EF94F031EF94F022
:10286000B081B051D8B437EF94F039EF94F04CEF19
:1028700094F0B029D8A43FEF94F041EF94F049EFE1
:1028800094F0000E9E6F000E9F6F000EA06F000E62
:10289000A16FA08F54EF94F0000E9E6F000E9F6FFB
:1028A000000EA06F000EA16FA551800BAA1BA551B1
:1028B000A525AB6FA4AF5FEF94F061EF94F062EFEA
:1028C00094F0AB81AB51D8B468EF94F06AEF94F018
:1028D0007DEF94F0AB29D8A470EF94F072EF94F0F0
:1028E0007AEF94F0000EA26F000EA36F000EA46F9B
:1028F000000EA56FA48F85EF94F0000EA26F000E5E
:10290000A36F000EA46F000EA56FAB51D8B48BEF70
:1029100094F08DEF94F095EF94F0B051D8A493EF2C
:1029200094F095EF94F09FEF94F0000E9E6F000EE0
:102930009F6F000EA06F000EA16F35EF96F0A451AF
:102940009E03F3CFB5F1F4CFB6F1B551AC6FAD6BDB
:10295000AE6BAF6BB651B16FB26BB36BB46BA351CF
:102960009F03F3CFB5F1F4CFB6F1B551AC27000E0C
:10297000AD23AE23AF23B651B127000EB223B3234C
:10298000B423A251A003F3CFB5F1F4CFB6F1B55102
:10299000AC27000EAD23AE23AF23B651B127000EF6
:1029A000B223B323B423AEC1AFF1ADC1AEF1ACC11C
:1029B000ADF1AC6BA2519F03F3CFB5F1F4CFB6F1FB
:1029C000B551AC27B651AD23000EAE23000EAF2398
:1029D000A3519E03F3CFB5F1F4CFB6F1B551AC27B7
:1029E000B651AD23000EAE23000EAF23AEC1AFF142
:1029F000ADC1AEF1ACC1ADF1AC6BA2519E03F3CF52
:102A0000B5F1F4CFB6F1B551AC27B651AD23000EF8
:102A1000AE23000EAF23A4519F03F3CFB5F1F4CF43
:102A2000B6F1B551B127B651B223000EB323000E53
:102A3000B423A351A003F3CFB5F1F4CFB6F1B55150
:102A4000B127B651B223000EB323000EB423A45114
:102A5000A003F3CFB5F1F4CFB6F1B551A66FB651DF
:102A6000A76FA86BA96BA8C1A9F1A7C1A8F1A6C1BE
:102A7000A7F1A66BA651B127A751B223A851B32342
:102A8000A951B423ACC1A6F1ADC1A7F1AEC1A8F163
:102A9000AFC1A9F1190E52EF95F0D890A933A83320
:102AA000A733A633E82E4DEF95F0A651B127A751D5
:102AB000B223A851B323A951B423AEC1AFF1ADC124
:102AC000AEF1ACC1ADF1AC6BAB51B0C1A6F1A76B2F
:102AD000A627000EA723820EA625B56FFF0EA721FD
:102AE000B66F88EF95F0D890B137B237B337B437B7
:102AF000AFAF7DEF95F07FEF95F080EF95F0B1816E
:102B0000D890AC37AD37AE37AF37B507D8A0B607DA
:102B1000B3AF8DEF95F08FEF95F073EF95F0AB6B52
:102B2000AFAF95EF95F097EF95F0BBEF95F0FF0EF7
:102B3000AC15A66FFF0EAD15A76FFF0EAE15A86FF3
:102B40007F0EAF15A96FA651A711A811A911D8B46E
:102B5000ACEF95F0AEEF95F0B2EF95F0010EAB6FE4
:102B6000BBEF95F0B1A1B7EF95F0B9EF95F0BBEFE2
:102B700095F0AEEF95F0AB51D8B4C1EF95F0C3EF3F
:102B800095F0E7EF95F0010EB127000EB223B323C5
:102B9000B423B4A1CEEF95F0D0EF95F0E7EF95F028
:102BA000B1C1A6F1B2C1A7F1B3C1A8F1B4C1A9F1F5
:102BB000A935A933A833A733A633A6C1B1F1A7C15C
:102BC000B2F1A8C1B3F1A9C1B4F1B54BB62BB6BFF0
:102BD000F2EF95F0B65108E1B529D8A0F2EF95F0E3
:102BE000F4EF95F0FEEF95F0000EB16F000EB26FAE
:102BF000800EB36F7F0EB46F2BEF96F0B6BF0BEF66
:102C000096F0B65106E1B505D8B009EF96F00BEF96
:102C100096F016EF96F0000EB16F000EB26F000E38
:102C2000B36F000EB46FAA6B2BEF96F0B5C1B0F185
:102C3000FF0EB117FF0EB2177F0EB317000EB417B9
:102C4000B0A125EF96F027EF96F028EF96F0B38F1E
:102C5000D890B031B46FAA51B413B1C19EF1B2C1D2
:102C60009FF1B3C1A0F1B4C1A1F112000001635101
:102C7000800B686F635163256E6F62AF42EF96F011
:102C800044EF96F045EF96F06E816E51D8B44BEF5D
:102C900096F04DEF96F060EF96F06E29D8A453EFC2
:102CA00096F055EF96F05DEF96F0000E606F000E17
:102CB000616F000E626F000E636F628F68EF96F0B7
:102CC000000E606F000E616F000E626F000E636F8A
:102CD0006751800B681B67516725696F66AF73EF9B
:102CE00096F075EF96F076EF96F069816951D8B459
:102CF0007CEF96F07EEF96F091EF96F06929D8A4DC
:102D000084EF96F086EF96F08EEF96F0000E646FEB
:102D1000000E656F000E666F000E676F668F99EF8D
:102D200096F0000E646F000E656F000E666F000E69
:102D3000676F6951D8B49FEF96F0A1EF96F0A9EFB5
:102D400096F06E51D8A4A7EF96F0A9EF96F0B3EFE6
:102D500096F0000E606F000E616F000E626F000E45
:102D6000636F49EF98F066516003F3CF73F0F4CFCF
:102D700074F073516A6F6B6B6C6B6D6B74516F6F2A
:102D8000706B716B726B65516103F3CF73F0F4CFAD
:102D900074F073516A27000E6B236C236D237451FA
:102DA0006F27000E70237123722364516203F3CFE7
:102DB00073F0F4CF74F073516A27000E6B236C2309
:102DC0006D2374516F27000E7023712372236CC022
:102DD0006DF06BC06CF06AC06BF06A6B645161039C
:102DE000F3CF73F0F4CF74F073516A2774516B23EF
:102DF000000E6C23000E6D2365516003F3CF73F05A
:102E0000F4CF74F073516A2774516B23000E6C2356
:102E1000000E6D236CC06DF06BC06CF06AC06BF07F
:102E20006A6B64516003F3CF73F0F4CF74F07351A5
:102E30006A2774516B23000E6C23000E6D236651BC
:102E40006103F3CF73F0F4CF74F073516F277451B3
:102E50007023000E7123000E722365516203F3CFBD
:102E600073F0F4CF74F073516F2774517023000E18
:102E70007123000E722366516203F3CF73F0F4CF17
:102E800074F07351276E7451286E296A2A6A29C01A
:102E90002AF028C029F027C028F0276A27506F277A
:102EA00028507023295071232A5072236AC027F0BA
:102EB0006BC028F06CC029F06DC02AF0190E66EFC7
:102EC00097F0D8902A32293228322732E82E61EF43
:102ED00097F027506F2728507023295071232A50CC
:102EE00072236CC06DF06BC06CF06AC06BF06A6BE3
:102EF00069516EC027F0286A2726000E2822820E0C
:102F00002724736FFF0E2820746F9CEF97F0D890E2
:102F10006F377037713772376DAF91EF97F093EF6E
:102F200097F094EF97F06F81D8906A376B376C37D2
:102F30006D377307D8A0740771AFA1EF97F0A3EFB7
:102F400097F087EF97F0696B6DAFA9EF97F0ABEF54
:102F500097F0CFEF97F0FF0E6A15276EFF0E6B15F7
:102F6000286EFF0E6C15296E7F0E6D152A6E275088
:102F7000281029102A10D8B4C0EF97F0C2EF97F0AC
:102F8000C6EF97F0010E696FCFEF97F06FA1CBEF0F
:102F900097F0CDEF97F0CFEF97F0C2EF97F0695130
:102FA000D8B4D5EF97F0D7EF97F0FBEF97F0010E7D
:102FB0006F27000E70237123722372A1E2EF97F046
:102FC000E4EF97F0FBEF97F06FC027F070C028F0A8
:102FD00071C029F072C02AF02A342A3229322832EC
:102FE000273227C06FF028C070F029C071F02AC0C6
:102FF00072F0734B742B74BF06EF98F0745108E1B4
:103000007329D8A006EF98F008EF98F012EF98F027
:10301000000E6F6F000E706F800E716F7F0E726FFB
:103020003FEF98F074BF1FEF98F0745106E17305FD
:10303000D8B01DEF98F01FEF98F02AEF98F0000E2F
:103040006F6F000E706F000E716F000E726F686B05
:103050003FEF98F073C06EF0FF0E6F17FF0E701702
:103060007F0E7117000E72176EA139EF98F03BEFCB
:1030700098F03CEF98F0718FD8906E31726F685174
:1030800072136FC060F070C061F071C062F072C006
:1030900063F0120002011751800B246F175117259E
:1030A0002B6F16AF56EF98F058EF98F059EF98F055
:1030B0002B812B51D8B45FEF98F061EF98F075EF4A
:1030C00098F02B29D8A467EF98F069EF98F071EF8A
:1030D00098F0000E146F000E156F000E166F000EA4
:1030E000176F168F176B7DEF98F0000E146F000EA0
:1030F000156F000E166F000E176F1B51800B241BEF
:103100001B511B252C6F1AAF88EF98F08AEF98F0AF
:103110008BEF98F02C812C51D8B491EF98F093EF6D
:1031200098F0A7EF98F02C29D8A499EF98F09BEF8E
:1031300098F0A3EF98F0000E186F000E196F000EB4
:103140001A6F000E1B6F1A8F1B6BAFEF98F0000EFB
:10315000186F000E196F000E1A6F000E1B6F1851BA
:1031600019111A111B11D8A4B8EF98F0BAEF98F002
:10317000D2EF98F0000E146F000E156F000E166F50
:10318000000E176F800E16137F0E1713245117139E
:1031900014C214F215C215F216C216F217C217F2B3
:1031A00012EF9AF02B51D8A4D8EF98F0DAEF98F0FC
:1031B000E4EF98F0000E146F000E156F000E166FFE
:1031C000000E176F12EF9AF02C512BC21CF21D6BE0
:1031D0001C5F000E1D5B7F0E1C25256F000E1D2140
:1031E000266F14C220F215C221F216C222F217C2B3
:1031F00023F2000E146F000E156F000E166F000EF6
:10320000176F000E276F000E286F000E296F000E3B
:103210002A6F2C6B44EF99F02C51D8B412EF99F02F
:1032200014EF99F02BEF99F0D890203721372237FF
:103230002337D89014371537163717372AAF23EFAF
:1032400099F025EF99F026EF99F01481D89027375F
:10325000283729372A371851205D195121591A5119
:1032600022591B512359D8A038EF99F03AEF99F021
:1032700043EF99F02A8D1851205F1951215B1A51A3
:10328000225B1B51235B2C2B190E2C654AEF99F006
:103290004CEF99F00CEF99F02051211122112311DC
:1032A000D8B455EF99F057EF99F06FEF99F0278167
:1032B0006FEF99F0D89014371537163717372AAFB4
:1032C00064EF99F066EF99F067EF99F01481D89068
:1032D0002737283729372A372507D8A0260716AFDA
:1032E00074EF99F076EF99F05AEF99F02C6B2AAFC2
:1032F0007CEF99F07EEF99F0A2EF99F0FF0E271581
:103300001C6FFF0E28151D6FFF0E29151E6F7F0EF7
:103310002A151F6F1C511D111E111F11D8B493EFD8
:1033200099F095EF99F099EF99F0010E2C6FA2EFBB
:1033300099F014A19EEF99F0A0EF99F0A2EF99F007
:1033400095EF99F02C51D8B4A8EF99F0AAEF99F025
:10335000CEEF99F0010E1427000E15231623172324
:1033600017A1B5EF99F0B7EF99F0CEEF99F014C22D
:103370001CF215C21DF216C21EF217C21FF21F3533
:103380001F331E331D331C331CC214F21DC215F231
:103390001EC216F21FC217F2254B262B26BFD9EFED
:1033A00099F0265108E12529D8A0D9EF99F0DBEF53
:1033B00099F0E6EF99F0000E266F2569000E146F64
:1033C000000E156F000E166F000E176F26BFF3EF7D
:1033D00099F0265106E12505D8B0F1EF99F0F3EF09
:1033E00099F000EF9AF0000E266F000E256F000E88
:1033F000146F000E156F000E166F000E176F246B02
:1034000025C22BF22BA107EF9AF009EF9AF00CEFEF
:103410009AF0168F0DEF9AF0169FD8902B31176FF8
:10342000C6EF98F0120000018851800B956F88510B
:1034300088259C6F87AF1FEF9AF021EF9AF022EF5B
:103440009AF09C819C51D8B428EF9AF02AEF9AF018
:103450003EEF9AF09C29D8A430EF9AF032EF9AF020
:103460003AEF9AF0000E856F000E866F000E876FA0
:10347000000E886F878F886B46EF9AF0000E856F7D
:10348000000E866F000E876F000E886F8C51800BC8
:10349000951B8C518C259D6F8BAF51EF9AF053EF9C
:1034A0009AF054EF9AF09D819D51D8B45AEF9AF05A
:1034B0005CEF9AF070EF9AF09D29D8A462EF9AF031
:1034C00064EF9AF06CEF9AF0000E896F000E8A6F2D
:1034D000000E8B6F000E8C6F8B8F8C6B78EF9AF0D9
:1034E000000E896F000E8A6F000E8B6F000E8C6FBE
:1034F00089518A118B118C11D8A481EF9AF083EF36
:103500009AF09BEF9AF0000E856F000E866F000E0A
:10351000876F000E886F800E87137F0E881395517A
:10352000881385C085F086C086F087C087F088C084
:1035300088F0DBEF9BF09C51D8A4A1EF9AF0A3EFA9
:103540009AF0ADEF9AF0000E856F000E866F000EB8
:10355000876F000E886FDBEF9BF09D519CC08DF054
:103560008E6B8D5F000E8E5B7F0E8D25966F000E2D
:103570008E21976F85C091F086C092F087C093F03E
:1035800088C094F0000E856F000E866F000E876F66
:10359000000E886F000E986F000E996F000E9A6FE4
:1035A000000E9B6F9D6B0DEF9BF09D51D8B4DBEF30
:1035B0009AF0DDEF9AF0F4EF9AF0D89091379237C5
:1035C00093379437D89085378637873788379BAFBE
:1035D000ECEF9AF0EEEF9AF0EFEF9AF08581D89049
:1035E000983799379A379B378951915D8A5192590B
:1035F0008B5193598C519459D8A001EF9BF003EF54
:103600009BF00CEF9BF09B8D8951915F8A51925BEF
:103610008B51935B8C51945B9D2B190E9D6513EF21
:103620009BF015EF9BF0D5EF9AF091519211931109
:103630009411D8B41EEF9BF020EF9BF038EF9BF075
:10364000988138EF9BF0D890853786378737883751
:103650009BAF2DEF9BF02FEF9BF030EF9BF0858120
:10366000D890983799379A379B379607D8A09707FD
:1036700087AF3DEF9BF03FEF9BF023EF9BF09D6BFF
:103680009BAF45EF9BF047EF9BF06BEF9BF0FF0E7E
:1036900098158D6FFF0E99158E6FFF0E9A158F6F0F
:1036A0007F0E9B15906F8D518E118F119011D8B494
:1036B0005CEF9BF05EEF9BF062EF9BF0010E9D6F65
:1036C0006BEF9BF085A167EF9BF069EF9BF06BEFD1
:1036D0009BF05EEF9BF09D51D8B471EF9BF073EFC0
:1036E0009BF097EF9BF0010E8527000E8623872322
:1036F000882388A17EEF9BF080EF9BF097EF9BF0F3
:1037000085C08DF086C08EF087C08FF088C090F0A5
:10371000903590338F338E338D338DC085F08EC0CE
:1037200086F08FC087F090C088F0964B972B97BF9C
:10373000A2EF9BF0975108E19629D8A0A2EF9BF049
:10374000A4EF9BF0AFEF9BF0000E976F9669000E11
:10375000856F000E866F000E876F000E886F97BF13
:10376000BCEF9BF0975106E19605D8B0BAEF9BF0FD
:10377000BCEF9BF0C9EF9BF0000E976F000E966FA9
:10378000000E856F000E866F000E876F000E886F2B
:10379000956B96C09CF09CA1D0EF9BF0D2EF9BF074
:1037A000D5EF9BF0878FD6EF9BF0879FD8909C3109
:1037B000886F8FEF9AF01200E6ECAAF090C11CF22D
:1037C00091C11DF292C11EF293C11FF2DDECAAF06D
:1037D00090C120F291C121F292C122F293C123F251
:1037E000010E02012C6F000E2D6F000E2E6F000EC9
:1037F0002F6F010E306F000E316F000E326F000E12
:10380000336F0A0E246FD70E256FD30E266F3F0E2F
:10381000276F0101BB6DBC1FD8B0BC2B24C2A2F125
:1038200025C2A3F126C2A4F127C2A5F1BBC190F124
:10383000BCC191F1000E91BFFF0E926F936F010E0C
:103840002CEC9FF090C19EF191C19FF192C1A0F12B
:1038500093C1A1F122EC94F09EC100F29FC101F24C
:10386000A0C102F2A1C103F228C104F229C105F2EC
:103870002AC106F22BC107F218EC8DF000C228F223
:1038800001C229F202C22AF203C22BF228C290F12D
:1038900029C291F12AC292F12BC293F1D4ECA3F088
:1038A00090C1BBF191C1BCF128C20CF229C20DF24A
:1038B0002AC20EF22BC20FF2BBC190F1BCC191F132
:1038C0000101000E91BFFF0E926F936F010E2CEC61
:1038D0009FF090C110F291C111F292C112F293C106
:1038E00013F2FAECA8F00CC228F10DC229F10EC2B5
:1038F0002AF10FC22BF14EEF9DF0E6ECAAF0BBC10E
:1039000014F2BCC115F2000E020115BFFF0E166FB6
:10391000176F010190510201145D186F010191515F
:1039200002011559196F01019251020116591A6FBE
:1039300001019351020117591B6F1C5118252C6F5F
:103940001D5119212D6F1E511A212E6F1F511B2140
:103950002F6FDDECAAF0BBC114F2BCC115F2000E52
:10396000020115BFFF0E166F176F01019051020182
:103970001425186F0101915102011521196F0101E0
:103980009251020116211A6F010193510201172170
:103990001B6F2051185D306F21511959316F225121
:1039A0001A59326F23511B59336F2FBFE3EF9CF02D
:1039B0002F512E112D1109E1080E2C5DD8A0E3EF37
:1039C0009CF0E5EF9CF0EFEF9CF0070E2C6F000EE3
:1039D0002D6F000E2E6F000E2F6F09EF9DF02FAF91
:1039E000FFEF9CF0F90E2C5DFF0E2D59FF0E2E59A6
:1039F000FF0E2F59D8B0FFEF9CF001EF9DF009EFBB
:103A00009DF0F90E2C6FFF0E2D6FFF0E2E6FFF0E27
:103A10002F6F33BF17EF9DF033513211311109E190
:103A2000080E305DD8A017EF9DF019EF9DF023EF41
:103A30009DF0070E306F000E316F000E326F000EDA
:103A4000336F3DEF9DF033AF33EF9DF0F90E305DF6
:103A5000FF0E3159FF0E3259FF0E3359D8B033EFF4
:103A60009DF035EF9DF03DEF9DF0F90E306FFF0EAC
:103A7000316FFF0E326FFF0E336F305100080101BE
:103A8000906F02012C5155ECAAF0050E0201146F43
:103A9000260EE82EFED7142FFCD7000002012C5171
:103AA0002D112E112F11D8A458EF9DF05AEF9DF033
:103AB0007DEF9CF03051311132113311D8A463EFF6
:103AC0009DF065EF9DF07DEF9CF012002DC20CF291
:103AD0002EC20DF22FC20EF230C20FF214C110F23C
:103AE00015C111F216C112F217C113F2FAECA8F0C7
:103AF0000CC235F20DC236F20EC237F20FC238F2E6
:103B000031C20CF232C20DF233C20EF234C20FF2E5
:103B100010C110F211C111F212C112F213C113F24D
:103B2000FAECA8F00CC239F20DC23AF20EC23BF226
:103B30000FC23CF235C210F236C211F237C212F295
:103B400038C213F239C20CF23AC20DF23BC20EF285
:103B50003CC20FF2FAECA8F00CC214F20DC215F23E
:103B60000EC216F20FC217F2CD0E0201186FCC0E64
:103B7000196FD70E1A6F420E1B6F4AEC98F014C2E1
:103B80003DF215C23EF216C23FF217C240F25AC1D0
:103B900000F25BC101F25CC102F25DC103F23DC201
:103BA00004F23EC205F23FC206F240C207F218EC30
:103BB0008DF000C25AF101C25BF102C25CF103C296
:103BC0005DF15AC19EF15BC19FF15CC1A0F15DC185
:103BD000A1F1E10E0101A26F2E0EA36F650EA46F7D
:103BE000420EA56F22EC94F09EC15EF19FC15FF181
:103BF000A0C160F1A1C161F15EC19EF15FC19FF101
:103C000060C1A0F161C1A1F1000E0101A26F000E1F
:103C1000A36FB40EA46F430EA56F4AEC8AF09EC149
:103C200062F19FC163F1A0C164F1A1C165F101011D
:103C300065BF1FEF9EF01DEF9EF03AEF9EF062C150
:103C400000F263C101F264C102F265C103F2000E29
:103C50000201046F000E056FB40E066F430E076F6E
:103C600018EC8DF000C262F101C263F102C264F18E
:103C700003C265F12DC214F12EC215F12FC216F147
:103C800030C217F131C210F132C211F133C212F158
:103C900034C213F11200E6ECAAF090C142F191C1D6
:103CA00043F192C144F193C145F1820E0101A26F2B
:103CB000C30EA36FCB0EA46F420EA56F42C190F14D
:103CC00043C191F144C192F145C193F1010E2CEC35
:103CD0009FF090C19EF191C19FF192C1A0F193C15B
:103CE000A1F122EC94F09EC114F29FC115F2A0C183
:103CF00016F2A1C117F2000E0201186F000E196F23
:103D0000340E1A6F430E1B6F4AEC98F014C24AF13E
:103D100015C24BF116C24CF117C24DF14AC19EF1CA
:103D20004BC19FF14CC1A0F14DC1A1F1600E010149
:103D3000A26FE50EA36F800EA46F3F0EA56F22EC5D
:103D400094F09EC14AF19FC14BF1A0C14CF1A1C1B9
:103D50004DF14AC190F14BC191F14CC192F14DC16D
:103D600093F1D4ECA3F090C152F191C153F192C1FF
:103D700054F193C155F1DDECAAF090C146F191C127
:103D800047F192C148F193C149F1820E0101A26F3E
:103D9000C30EA36FCB0EA46F420EA56F46C190F168
:103DA00047C191F148C192F149C193F1010E2CEC48
:103DB0009FF090C19EF191C19FF192C1A0F193C17A
:103DC000A1F122EC94F09EC114F29FC115F2A0C1A2
:103DD00016F2A1C117F2000E0201186F000E196F42
:103DE000340E1A6F430E1B6F4AEC98F014C24EF15A
:103DF00015C24FF116C250F117C251F14EC19EF1DA
:103E00004FC19FF150C1A0F151C1A1F1600E01015C
:103E1000A26FE50EA36F800EA46F3F0EA56F22EC7C
:103E200094F09EC14EF19FC14FF1A0C150F1A1C1CC
:103E300051F14EC190F14FC191F150C192F151C178
:103E400093F1D4ECA3F090C156F191C157F192C116
:103E500058F193C159F112000101986F0101985175
:103E6000D8B435EF9FF037EF9FF059EF9FF093BF35
:103E70003EEF9FF03CEF9FF059EF9FF090C194F11F
:103E800091C195F192C196F193C197F1941F951F3D
:103E9000961F971F942B000E95239623972394C16A
:103EA0009AF195C19BF196C19CF197C19DF161EF8B
:103EB0009FF090C19AF191C19BF192C19CF193C185
:103EC0009DF19051911192119311D8A46AEF9FF036
:103ED0006CEF9FF076EF9FF0000E906F000E916FE9
:103EE000000E926F000E936F07EFA0F0960E996F81
:103EF00080EF9FF0992BD8909D339C339B339A335E
:103F0000000E9A15946F000E9B15956F000E9C1570
:103F1000966FFE0E9D15976F9451951196119711FE
:103F2000D8A495EF9FF097EF9FF07AEF9FF0A5EF61
:103F30009FF0992B010E9A27000E9B239C239D2313
:103F4000D8909D339C339B339A33000E9A15946F0F
:103F5000000E9B15956F000E9C15966FFF0E9D151C
:103F6000976F9451951196119711D8A4BAEF9FF0BD
:103F7000BCEF9FF099EF9FF0C4EF9FF09907D890A6
:103F80009A379B379C379D379CBFC9EF9FF0CBEF8B
:103F90009FF0D3EF9FF0020E9961D1EF9FF0D3EF26
:103FA0009FF0BEEF9FF099B1D8EF9FF0DAEF9FF04E
:103FB000DBEF9FF09C9FD890993399C194F1956B5A
:103FC000966B976B94C197F1966B956B946B94512C
:103FD0009A1395519B1396519C1397519D13985189
:103FE000D8B4F5EF9FF0F7EF9FF0FFEF9FF093BF8E
:103FF000FEEF9FF0FCEF9FF0FFEF9FF09D8F9AC1C7
:1040000090F19BC191F19CC192F19DC193F112007D
:10401000216E2150D8B40FEFA0F011EFA0F033EFD4
:10402000A0F01CBE18EFA0F016EFA0F033EFA0F048
:1040300019C01DF01AC01EF01BC01FF01CC020F0DC
:104040001D1E1E1E1F1E201E1D2A000E1E221F22A8
:1040500020221DC023F01EC024F01FC025F020C068
:1040600026F03BEFA0F019C023F01AC024F01BC0CB
:1040700025F01CC026F019501A101B101C10D8A4D3
:1040800044EFA0F046EFA0F050EFA0F0000E196E44
:10409000000E1A6E000E1B6E000E1C6EE1EFA0F0FB
:1040A000960E226E5AEFA0F0222AD89026322532A0
:1040B00024322332000E23141D6E000E24141E6EB3
:1040C000000E25141F6EFE0E2614206E1D501E10AD
:1040D0001F102010D8A46FEFA0F071EFA0F054EFE4
:1040E000A0F07FEFA0F0222A010E2326000E24224A
:1040F00025222622D8902632253224322332000E61
:1041000023141D6E000E24141E6E000E25141F6E47
:10411000FF0E2614206E1D501E101F102010D8A454
:1041200094EFA0F096EFA0F073EFA0F09EEFA0F058
:104130002206D890233624362536263625BEA3EF10
:10414000A0F0A5EFA0F0ADEFA0F0020E2260ABEF63
:10415000A0F0ADEFA0F098EFA0F022B0B2EFA0F089
:10416000B4EFA0F0B5EFA0F0259ED890223222C087
:104170001DF01E6A1F6A206A1DC020F01F6A1E6A99
:104180001D6A1D5023121E5024121F50251220504C
:1041900026122150D8B4CFEFA0F0D1EFA0F0D9EF84
:1041A000A0F01CBED8EFA0F0D6EFA0F0D9EFA0F0A1
:1041B000268E23C019F024C01AF025C01BF026C09B
:1041C0001CF01200000E01019E6F000EF9ECA9F028
:1041D000450E01019E6FFF0E9F6F42ECA9F0000E8D
:1041E00001019E6F010EF9ECA9F09B0E01019E6F7B
:1041F000FE0E9F6F42ECA9F0290E0101A16F960EF1
:10420000A06F7F0EE82EFED7A02FFCD7A12FFAD7E4
:1042100066ECAAF0060E0101906F010E916F690E17
:1042200076ECAAF0150E0101A06FC60EE82EFED79F
:10423000A02FFCD700000F0E0101906F020E916FAE
:10424000690E76ECAAF0150E0101A06FC60EE82EDD
:10425000FED7A02FFCD70000010E0101906F0C0EBD
:10426000AFECAAF0150E0101A06FC60EE82EFED726
:10427000A02FFCD70000090E0001E819D8A443EFD5
:10428000A1F045EFA1F06DEFA1F0000E01019E6FCE
:10429000000EF9ECA9F0450E01019E6FFF0E9F6F15
:1042A00042ECA9F0000E01019E6F010EF9ECA9F09D
:1042B000BD0E01019E6FFE0E9F6F42ECA9F0290E0C
:1042C0000101A16F960EA06F7F0EE82EFED7A02FE2
:1042D000FCD7A12FFAD78AEFA1F0000E01019E6F43
:1042E000000EF9ECA9F09A0E01019E6FFF0E9F6F70
:1042F00042ECA9F0000E01019E6F010EF9ECA9F04D
:10430000340E01019E6FFF0E9F6F42ECA9F000007A
:1043100087EFA1F00F0E0101906F000E916F0C0E50
:1043200076ECAAF0150E0101A06FC60EE82EFED79E
:10433000A02FFCD700001200040E0101A065A3EF1E
:10434000A1F0A5EFA1F0B6EFA1F0010E9C6F9EC108
:1043500095F19FC196F1270E986F100E976F67EC3D
:10436000A8F001019551300F65ECA9F0030E010191
:10437000A065BDEFA1F0BFEFA1F0DBEFA1F0010E52
:104380009C6F270E936F100E926F9EC190F19FC18C
:1043900091F1A2ECA8F090C195F191C196F1030EB4
:1043A0000101986FE80E976F67ECA8F00101955135
:1043B000300F65ECA9F0020E0101A065E2EFA1F05B
:1043C000E4EFA1F000EFA2F0010E9C6F030E936FDB
:1043D000E80E926F9EC190F19FC191F1A2ECA8F0FE
:1043E00090C195F191C196F1000E0101986F640E94
:1043F000976F67ECA8F001019551300F65ECA9F0BB
:10440000010E0101A06507EFA2F009EFA2F025EF70
:10441000A2F0010E9C6F000E936F640E926F9EC10E
:1044200090F19FC191F1A2ECA8F090C195F191C1DA
:1044300096F1000E0101986F0A0E976F67ECA8F0D5
:1044400001019551300F65ECA9F00101A051D8B4DC
:104450002CEFA2F02EEFA2F03FEFA2F0010E9C6F26
:104460009EC190F19FC191F1000E936F0A0E926F61
:10447000A2ECA8F001019051300F65ECA9F01200F8
:10448000A2ECAAF0010E0101BC6F630EBB6FDCEC65
:104490009BF0EFECAAF090C11CF191C11DF192C10B
:1044A0001EF193C11FF1EFECAAF090C124F191C16C
:1044B00025F192C126F193C127F1010118511C5D2C
:1044C0000201416F010119511D590201426F0101A1
:1044D0001A511E590201436F01011B511F5902015C
:1044E000446F44514311421109E10A0E415DD8A0C5
:1044F0007CEFA2F07EEFA2F088EFA2F01CC118F1D1
:104500001DC119F11EC11AF11FC11BF12EECAAF039
:1045100001012051245D0201416F01012151255902
:104520000201426F0101225126590201436F01012C
:10453000235127590201446F44514311421109E1AB
:10454000FA0E415DD8A0A7EFA2F0A9EFA2F0B5EF57
:10455000A2F024C120F125C121F126C122F127C1F9
:1045600023F166ECAAF018ECA7F03550000AD8B495
:10457000C0EFA2F0010AD8B4C0EFA2F0C0EFA2F0E1
:1045800036C090F1375055ECAAF049EFA2F090EF09
:1045900005F00101996B97BFD2EFA2F0D0EFA2F026
:1045A000DCEFA2F0971F961F951F946D000E9523C8
:1045B00096239723010E996F93BFE3EFA2F0E1EFEB
:1045C000A2F0EDEFA2F0931F921F911F906D000ECD
:1045D000912392239323010E991B000E9A6F000ED4
:1045E0009B6F000E9C6F000E9D6F9451951196115C
:1045F0009711D8B4FEEFA2F000EFA3F036EFA3F0CE
:10460000010E986F0AEFA3F0D8909437953796373C
:104610009737982B97AF0FEFA3F011EFA3F004EFAC
:10462000A3F0D8909A379B379C379D379451905D73
:10463000955191599651925997519359D8A023EF7A
:10464000A3F025EFA3F02EEFA3F09451905F9551C6
:10465000915B9651925B9751935B9A81D890973377
:10466000963395339433982F11EFA3F09951D8B422
:104670003CEFA3F03EEFA3F046EFA3F09D1F9C1F7D
:104680009B1F9A6D000E9B239C239D239AC190F142
:104690009BC191F19CC192F19DC193F11200226ADC
:1046A00020BE57EFA3F055EFA3F061EFA3F0201E5B
:1046B0001F1E1E1E1D6C000E1E221F222022010E18
:1046C000226E1CBE68EFA3F066EFA3F072EFA3F0BA
:1046D0001C1E1B1E1A1E196C000E1A221B221C22E5
:1046E000010E221A000E236E000E246E000E256E9F
:1046F000000E266E1D501E101F102010D8B483EF20
:10470000A3F085EFA3F0BBEFA3F0010E216E8FEFB6
:10471000A3F0D8901D361E361F362036212A20AE33
:1047200094EFA3F096EFA3F089EFA3F0D89023368F
:104730002436253626361D50195C1E501A581F5037
:104740001B5820501C58D8A0A8EFA3F0AAEFA3F044
:10475000B3EFA3F01D50195E1E501A5A1F501B5A7A
:1047600020501C5A2380D89020321F321E321D3216
:10477000212E96EFA3F02250D8B4C1EFA3F0C3EFDF
:10478000A3F0CBEFA3F0261E251E241E236C000EE3
:1047900024222522262223C019F024C01AF025C085
:1047A0001BF026C01CF01200010192359335996F61
:1047B0009951D8A4DEEFA3F0E0EFA3F0EAEFA3F065
:1047C000000E906F000E916F000E926F000E936FAF
:1047D00057EFA4F090C194F191C195F192C196F177
:1047E00093C197F1200EFAEFA3F0D8909733963348
:1047F00095339433E82EF5EFA3F09451986F928F90
:10480000FF0E9017FF0E9117FF0E9217000E9317D1
:10481000960E995F99BF11EFA4F00FEFA4F027EF68
:10482000A4F09951800A970FD8B019EFA4F01BEFAC
:10483000A4F01DEFA4F0E0EFA3F0D89093339233EF
:1048400091339033993F1DEFA4F03FEFA4F01F0E7A
:1048500099652DEFA4F02FEFA4F037EFA4F0E0EF6F
:10486000A3F0D890903791379237933799079951A1
:10487000D8A43DEFA4F03FEFA4F031EFA4F098519D
:10488000D8B445EFA4F047EFA4F04FEFA4F0931F86
:10489000921F911F906D000E91239223932390C13C
:1048A00090F191C191F192C192F193C193F11200F3
:1048B0000001773578352C6E2C50D8A462EFA4F027
:1048C00064EFA4F06EEFA4F0000E756F000E766F2B
:1048D000000E776F000E786FDBEFA4F075C079F0F3
:1048E00076C07AF077C07BF078C07CF0200E7EEF47
:1048F000A4F0D8907C337B337A337933E82E79EF88
:10490000A4F079512B6E778FFF0E7517FF0E761777
:10491000FF0E7717000E7817960E2C5E2CBE95EFC3
:10492000A4F093EFA4F0ABEFA4F02C50800A970F03
:10493000D8B09DEFA4F09FEFA4F0A1EFA4F064EF36
:10494000A4F0D89078337733763375332C3EA1EFCB
:10495000A4F0C3EFA4F01F0E2C64B1EFA4F0B3EFEA
:10496000A4F0BBEFA4F064EFA4F0D89075377637CD
:10497000773778372C062C50D8A4C1EFA4F0C3EFBA
:10498000A4F0B5EFA4F02B50D8B4C9EFA4F0CBEF4E
:10499000A4F0D3EFA4F0781F771F761F756D000E7B
:1049A00076237723782375C075F076C076F077C0CC
:1049B00077F078C078F012000CC19AF10DC19BF12C
:1049C0000EC19CF10FC19DF190C19AF191C19BF173
:1049D00092C19CF193C19DF19AC194F19BC195F153
:1049E0009CC196F19DC197F1180EFDEFA4F0010155
:1049F000D8909733963395339433E82EF7EFA4F09D
:104A00009451986F996B98519911D8A40AEFA5F019
:104A10000CEFA5F02CEFA5F0D8909A35946F9B354C
:104A2000956F9C35966F9D35976F945195119611A2
:104A30009711D8A41EEFA5F020EFA5F026EFA5F062
:104A4000000E916F020E906F5BEFA5F0000E916F5C
:104A5000030E906F5BEFA5F098299911D8A433EF5E
:104A6000A5F035EFA5F057EFA5F09AC194F19BC1E1
:104A700095F19CC196F19DC197F1090ED89094379C
:104A8000953796379737E82E3EEFA5F0945195115C
:104A900096119711D8B44FEFA5F052EFA5F0010E83
:104AA00053EFA5F0000E906F916B5BEFA5F0000E39
:104AB000916F040E906F12000CC123F00DC124F011
:104AC0000EC125F00FC126F019C023F01AC024F042
:104AD0001BC025F01CC026F023C01DF024C01EF012
:104AE00025C01FF026C020F0180E7CEFA5F0D8904E
:104AF00020321F321E321D32E82E77EFA5F01D50F6
:104B0000216E226A21502210D8A489EFA5F08BEFE4
:104B1000A5F0ABEFA5F0D89023341D6E24341E6EA3
:104B200025341F6E2634206E1D501E101F102010BD
:104B3000D8A49DEFA5F09FEFA5F0A5EFA5F0000E7E
:104B40001A6E020E196EDAEFA5F0000E1A6E030E41
:104B5000196EDAEFA5F021282210D8A4B2EFA5F043
:104B6000B4EFA5F0D6EFA5F023C01DF024C01EF0D1
:104B700025C01FF026C020F0090ED8901D361E3625
:104B80001F362036E82EBDEFA5F01D501E101F1059
:104B90002010D8B4CEEFA5F0D1EFA5F0010ED2EFE2
:104BA000A5F0000E196E1A6ADAEFA5F0000E1A6E63
:104BB000040E196E1200849A8498040E0101A06FED
:104BC000400E9F6F260EE82EFED79F2FFCD7A02FFA
:104BD000FAD70000030E77ECA7F0680E01019F6F73
:104BE000E40EE82EFED79F2FFCD70000030E77ECD3
:104BF000A7F0680E01019F6FE40EE82EFED79F2FED
:104C0000FCD70000030E77ECA7F0680E01019F6F40
:104C1000E40EE82EFED79F2FFCD70000020E77ECA3
:104C2000A7F0680E01019F6FE40EE82EFED79F2FBC
:104C3000FCD70000000E01019C6F280E65ECA9F066
:104C4000680E01019F6FE40EE82EFED79F2FFCD760
:104C50000000000E01019C6F0C0E65ECA9F0A70E80
:104C600001019F6F3A0EE82EFED79F2FFCD7000060
:104C700066ECAAF0680E01019F6FE40EE82EFED7E5
:104C80009F2FFCD70000000E01019C6F060E65EC03
:104C9000A9F0680E01019F6FE40EE82EFED79F2F4A
:104CA000FCD7000066ECAAF0848A12000101906F24
:104CB0009A685CEFA6F000009EA261EFA6F063EF99
:104CC000A6F05BEFA6F0350EE82EFED70000FD0E35
:104CD0009A6E6CEFA6F000009EA271EFA6F073EF43
:104CE000A6F06BEFA6F0350EE82EFED7000090C1BF
:104CF0009AFF7CEFA6F000009EA281EFA6F083EF62
:104D0000A6F07BEFA6F0350EE82EFED700009A68DD
:104D10008BEFA6F000009EA290EFA6F092EFA6F017
:104D20008AEFA6F0350EE82EFED70000FD0E9A6E33
:104D30009BEFA6F000009EA2A0EFA6F0A2EFA6F0C7
:104D40009AEFA6F0350EE82EFED7000090C19AFF2C
:104D5000ABEFA6F000009EA2B0EFA6F0B2EFA6F077
:104D6000AAEFA6F0350EE82EFED700001200066A64
:104D700004BEBFEFA6F0BDEFA6F0C5EFA6F0036C32
:104D8000041ED8B0042A010E066E02BECCEFA6F0B7
:104D9000CAEFA6F0D2EFA6F0016C021ED8B0022A2C
:104DA000010E061A000E086E000E076E0350041066
:104DB000D8B4DDEFA6F0DFEFA6F007EFA7F0010E05
:104DC000056EE7EFA6F0D89003360436052A04AE48
:104DD000ECEFA6F0EEEFA6F0E3EFA6F0D8900736E2
:104DE00008360350015C04500258D8A0FAEFA6F030
:104DF000FCEFA6F001EFA7F00350015E0450025A49
:104E00000780D89004320332052EEEEFA6F006504C
:104E1000D8B40DEFA7F00FEFA7F013EFA7F0076CD2
